:020000040140b9
:1000000002000390fc06e0f8a3e0f990fc08e8f099
:10001000a3e9f090001ee5832480f583e47390fc4f
:1000200006e0f8a3e02402f990fc06e8f0a3e9f06a
:03003000020000cb
:020000040140b9
:020100000000fd
:020000040140b9
:0402000000017f2555
:020000040140b9
:040300000001442094
:020000040140b9
:108000000100065a80004d696e644c696e6b204118
:108010006e6e6f756e636520474153206d6f6465aa
:078020006c20646174610033
:020000040141b8
:10000000023ed30200160204ffff030245a0751250
:100010001632ff02450675121132ff02457f0f228c
:10002000ffffff0245c1ffffffffff02000ee4fddf
:10003000fcef14602514604b14605c14607b240496
:1000400060030200d990fc06e0fca3e0fd5304032a
:10005000ed25e0fdec33fc0200d990fc06e07c00cd
:10006000fd53050ced7e007806c333ce33ced8f9b0
:10007000fdac0690fc09e04205e4ed25e0fdec3323
:10008000fc805690fc0ae0fca3e0fd530403ed2540
:10009000e0fdec33fc804290fc0ae07c00fd53055f
:1000a0001ced7e007806c333ce33ced8f9fdac0606
:1000b00090fc0de04205e4802090fc0ae07c00fd0d
:1000c0005305e0ed7e007803c333ce33ced8f9fd7f
:1000d000ac0690fc0fe04205e4ae04af05e4fcfd85
:1000e000780e1226ef2242617474657279206c6f6b
:1000f00073733a00205965730a00204e6f0a00ff9f
:100100007f4efeff016a01a30000000001400200d3
:10011000000000000140030000000000000000009b
:1001200000000000000000000000000000000000cf
:1001300000000000014001000000000001408000bc
:1001400000000000ffffffff014000000140000031
:100150000141ffff0141fffbffffffff0141800065
:020000040141b8
:100174000000ffff0000010404007f547f677f6ad2
:10018400000000000000000000000000000000006b
:10019400000000000000000000000000000000005b
:0801a400000000000000000053
:020000040141b8
:10020000000084008a00900096009d00a400ab00ce
:10021000b300bb00c300cc00d500df00e900f30051
:10022000fe000901150122012f013c014a0159017b
:100230006801790189019b01ad01c101d501ea0184
:10024000000217022e02470262027d029902b702e3
:10025000d602f70219033c0361038803b003db03f2
:100260000704350465049804cc0403053d057905ad
:10027000b705f9053d068506cf061d076f07c407bc
:100280001d087a08db084109ab09190a8d0a060b1b
:10029000840b080c920c220db90d560efa0ea60f07
:1002a00059101411d811a4127a1359144215361684
:1002b00034173e185419761aa61be21c2d1e871ff0
:1002c000f0206a22f42390253e270029d62ac12c4b
:1002d000c12ed93009335235b537333ace3c863f3b
:1002e0005e4257457148af4b124f9c524f562c5aa5
:1002f000355e6d62d4666f6b3e704475837aff7fa6
:1003000000004000480052005c0068007600860053
:100310009600a800bc00d200ea00040120013e01c2
:1003200060018401aa01d4010002300262029a0233
:10033000d402120352039803e2032e048004d6046d
:1003400030058c05ee055606c0062e07a2071a08d2
:10035000940814099809200aac0a3c0bce0b660cd1
:10036000000d9e0d400ee40e8c0f3610e41094111b
:100370004612fc12b2136c142815e615a61668175f
:100380002a18f018b6197e1a481b121ce01cae1d64
:100390007c1e4e1f2020f420ca21a2227a2356243c
:1003a00034251226f626da27c228ac299c2a8e2b61
:1003b000842c7e2d7e2e822f8c309c31b232d03315
:1003c000f63424365a379a38e6393c3b9c3c0c3e8e
:1003d000883f1241ae425a441846ea47d249d04bb0
:1003e000e64d16506452ce545a57085adc5cd85f1a
:1003f00000635866e069a06d9c71d675567a1e7fc1
:10040000008f2fe4f532f533ef75f00ea42432f5aa
:1004100082e434f0f583e0fea3e08e30f531e5317f
:10042000f47003e530f47003020cd790f030e0ff75
:10043000a3e090fc0acff0a3eff0853182853083f2
:10044000e0f534e53420e7030209a8e534247860b8
:10045000291470030204f01470030208f324fc70e2
:10046000030208661470030208a724906003020cbc
:10047000ce74fff530f531020cce853182853083a4
:10048000a3e0fffd90f01de0fe2dfde433fcc3ed85
:10049000948fec64809480501e900310e493fc745d
:1004a0000193fde52f25e0249ef582e434f4f583e5
:1004b000ecf0a3edf0802bee2f2481ffc31325e099
:1004c0002400f582e43403f583e493fe740193ff82
:1004d000e52f25e0249ef582e434f4f583eef0a3c5
:1004e000eff074022531f531e43530f530020ccef1
:1004f0000531e53170020530f582853083e0ff304b
:10050000e716e0547ff534a3e0f53574022531f5a4
:1005100031e43530f530800d7534008f350531e527
:100520003170020530e53420e6030206dee53430a2
:10053000e5087536017537a8800675360175372cc4
:1005400053341f90fc0a7402f0a37482f090f08779
:10055000e0540764066003020615ae36af378f829b
:100560008e83e0fca3e0fda3e0fea3e0ffec4d4e94
:100570004f7003020615ae36af378f828e83e0a32d
:10058000e0a3e0fea3e0ffee547ffead0ffce535f7
:1005900025e0ffe53433feef2df539ee3cf538aebe
:1005a00036af378f828e83e0fca3e0fda3e0fea38d
:1005b000e0ff780f1226dcee540390fc0af0efa364
:1005c000f0853982853883e0fea3e08e38f5394e18
:1005d000604390fc0a7402f0a37482f0ae36af3729
:1005e0008f828e83e0f8a3e0f9a3e0faa3e0fbe4b6
:1005f000fcfdeb2539ffea3538feed39fdec38fc22
:10060000e52f75f00ea4243af582e434f0f5831258
:100610002712020cce90fc0ae4f0a37402f0ae366e
:10062000af378f828e83e0fca3e0fda3e0fea3e062
:10063000ffec4d4e4f70030206d8ae36af378f82b7
:100640008e83e0a3e0a3e0fea3e0ffee547ffeadc7
:100650000ffce53525e0ffe53433feef2df539eeef
:100660003cf538ae36af378f828e83e0fca3e0fdd9
:10067000a3e0fea3e0ff780f1226dcee540390fc0b
:100680000af0efa3f0853982853883e0fea3e08e7f
:1006900038f5394e604290fc0ae4f0a37402f0aee3
:1006a00036af378f828e83e0f8a3e0f9a3e0faa398
:1006b000e0fbe4fcfdeb2539ffea3538feed39fdc2
:1006c000ec38fce52f75f00ea4243af582e434f002
:1006d000f583122712020cce75340075357fe53490
:1006e00030e5087536017537a48006753601753713
:1006f0002853341f90fc0ae4f0a37402f0ae36af26
:10070000378f828e83e0fca3e0fda3e0fea3e0ff31
:10071000ec4d4e4f7003020853ae36af378f828eca
:1007200083e0a3e0a3e0fea3e0ffee547ffead0f65
:10073000fce53525e0ffe53433feef2df539ee3ce1
:10074000f538ae36af378f828e83e0fca3e0fda391
:10075000e0fea3e0ff780f1226dcee540390fc0ac3
:10076000f0efa3f0853982853883e0fea3e08e3870
:10077000f5394e604290fc0ae4f0a37402f0ae3604
:10078000af378f828e83e0f8a3e0f9a3e0faa3e00d
:10079000fbe4fcfdeb2539ffea3538feed39fdecd5
:1007a00038fce52f75f00ea4243af582e434f0f518
:1007b00083122712020cce90fc0ae4f0a37402f01c
:1007c000ae36af378f828e83e0a3e0a3e0fea3e0d6
:1007d000ffee547ffeef24fef539e43ef538ae36e9
:1007e000af378f828e83e0fca3e0fda3e0fea3e0a1
:1007f000ff780f1226dcee540390fc0af0efa3f012
:10080000853982853883e0fea3e08e38f5394e6065
:100810004290fc0ae4f0a37402f0ae36af378f8248
:100820008e83e0f8a3e0f9a3e0faa3e0fbe4fcfd8b
:10083000eb2539ffea3538feed39fdec38fce52fc4
:1008400075f00ea4243af582e434f0f583122712f1
:10085000020cce7f231246be7f341246be90f08734
:10086000e04440f080fe0531e53170020530f5824c
:10087000853083e0ffe52f75f00ea4243ef582e479
:1008800034f0f583eff00531e53170020530e52fe6
:1008900075f00ea42438f582e434f0f583e530f0e9
:1008a000a3e531f0020ccee52f75f00ea4243ef541
:1008b00082e434f0f583e0602ce52f75f00ea4247b
:1008c00038f582e434f0f583e0fea3e08e30f531b4
:1008d000e52f75f00ea4243ef582e434f0f583e0b4
:1008e00014f0020cce74022531f531e43530f530c8
:1008f000020ccee52f75f00ea42436f582e434f018
:10090000f583e0fca3e0fde41224da8f378e368d08
:10091000358c340531e53170020530f58285308340
:10092000e075f004a424c9f582e5f03413f58312d0
:100930002702ab37aa36a935a8341223cf122513c4
:100940008e368f37e5374536700674fff536f53746
:10095000e52f64056020e52f25e024aff582e4341f
:10096000f4f583e536f0e52f25e024aef582e43496
:10097000f4f583e537f00531e53170020530f58295
:10098000853083e0753200f53330e711e0547ff5b0
:1009900032a3e0f5330531e531700205300531e56c
:1009a0003170020530020ccee53470320531e5318c
:1009b00070020530f582853083e0753200f5333002
:1009c000e711e0547ff532a3e0f5330531e53170ee
:1009d0000205300531e53170020530020cceaf2f33
:1009e00012441a500be52f4440ff124711020cd756
:1009f000853182853083e0f536e52f75f00ea4242d
:100a00003af582e434f0af82fe1243318e388f39ea
:100a1000753701e5392411f582e43538f583e0ffb7
:100a2000e536d39f400f74142539f539e43538f590
:100a300038053780dee52f75f00ea4243af582e400
:100a400034f0f583e0c313547fad376d7001e4706b
:100a500003020bb0af37ef547f25e0fee52f75f0b2
:100a60000ea4243af582e434f0f583c083c082e01a
:100a70005401fca3e0fdec4effedd082d083cff01b
:100a8000a3eff0853982853883e0fca3e0fda3e085
:100a9000fea3e0f5378e368d358c34e535b4ff296d
:100aa000e534b4ff24af3712001ee4f537f5367590
:100ab0003580f534e52f75f00ea4243ff582e4343b
:100ac000f0f583e04420f08013e52f75f00ea424a8
:100ad0003ff582e434f0f583e054dff0e52f25e0c4
:100ae00025e02462f582e434f4f583e535f0a3e5ee
:100af00034f0a3e537f0a3e536f0e52fb4053de586
:100b0000392412f582e43538f583e0f536a3e0f5b3
:100b10003790f4cde536f090f4cce537f0e53924a4
:100b200004f582e43538f583e0fca3e0fda3e0fea4
:100b3000a3e0f5378e368d358c348056e539241296
:100b4000f582e43538f583e0f536a3e0f537e52f97
:100b500025e024b9f582e434f4f583e536f0e52f99
:100b600025e024b8f582e434f4f583e537f0e5397f
:100b7000240af582e43538f583e0f534a3e0f53551
:100b8000e5392408f582e43538f583e0f536a3e04d
:100b9000f537e52f25e025e02482f582e434f4f5ed
:100ba00083e535f0a3e534f0a3e537f0a3e536f0af
:100bb000e539240cf582e43538f583e0fca3e0fd4b
:100bc000a3e0fea3e0f5378e368d358c3490f030ff
:100bd000e0ffa3e090fc0acff0a3eff0e52f64055f
:100be000606c853182853083e075f004a424c9f5fa
:100bf00082e5f03417f583122702ab37aa36a93500
:100c0000a8341223cf1225138e368f37e537453699
:100c1000700674fff536f537e52f75f00ea424360f
:100c2000f582e434f0f583e536f0a3e537f0e52fff
:100c300025e024aff582e434f4f583e536f0e52fc2
:100c400025e024aef582e434f4f583e537f0e52fb2
:100c500075f00ea4243ff582e434f0f583e030e42f
:100c600026e52f25e0249ef582e434f4f583e0feaa
:100c7000a3e0ffe52f25e024d2f582e434f4f583e8
:100c8000eef0a3eff08011e52f25e024d2f582e409
:100c900034f4f583e4f0a3f0af2f1246ea0531e512
:100ca0003170020530f582853083e0753200f5330e
:100cb00030e711e0547ff532a3e0f5330531e5313b
:100cc000700205300531e531700d05308009e533de
:100cd0004532700302041ee52f75f00ea42432f590
:100ce00082e434f0f583e530f0a3e531f0e52f75cb
:100cf000f00ea42434f582e434f0f583e532f0a359
:100d0000e533f04532700aae30af31beff05bfffac
:100d100002d322c3221246dd3002030213c890f030
:100d200017e0ff540ff52964086003020ec0efc4fa
:100d3000540ffe540770030213c8ef548fffee14d4
:100d40005407fec454f04ff0e0ffc41313135401d2
:100d500020e00e90f015e004f0700690f014e0042e
:100d6000f0e4f52990fc0ae0f52ba3e0f52c90f0d7
:100d70000ce0fca3e0fda3e0fea3e0ffec4d4e4f32
:100d80006005e4ff12274f90f010e0fca3e0fda304
:100d9000e0fea3e0ffec4d4e4f60057f0112274fb0
:100da00090f018e0ff54306054ef30e528e4f52e61
:100db000af2eef75f00ea4243ff582e434f0f583f6
:100dc000e04402f0052ee52eb406e590f018e0545c
:100dd000dff0020eb6e4f52eaf2eef75f00ea42470
:100de0003ff582e434f0f583e04404f0052ee52e6f
:100df000b406e590f018e054eff0020eb690f03f24
:100e0000e030e02390f04de030e01c90f05be0300b
:100e1000e01590f069e030e00e90f077e030e00708
:100e200090f085e020e005c214020eb630140fc227
:100e30001490f002e0fea3e0ff122c21807890f0e5
:100e400019e0fca3e0fda3e0fea3e0ffec4d4e4f54
:100e5000701190f018e04401f030e15ae4ff123ec6
:100e600043805390f019e0fca3e0fda3e0fea3e073
:100e7000e4fffeedec5401fce4fbfa79ff7801c3da
:100e80001226cb701790f01be0fea3e0ff122c217e
:100e900090f01912271e00000000801ae4ff1219ba
:100ea000c98e2d8f2ee52ef47003e52df46007af6b
:100eb0002eae2d122c2190fc0ae52bf0a3e52cf090
:100ec000e529d394054003021131300203021131a8
:100ed000e52975f00ea4243ff582e434f0f583e0b3
:100ee000ff544f7003020ff4ef54426042af2912d7
:100ef000441a500be5294440ff124711020fefe559
:100f00002975f00ea4243ff582e434f0f583e0ff68
:100f100030e1034401f0e52975f00ea4243ff58289
:100f2000e434f0f583e054fdf054bff0020fefe538
:100f30002975f00ea4243ff582e434f0f583e0ff38
:100f400020e203020fef54fbf020e070e52975f07a
:100f50000ea4243ff582e434f0f583e030e33ee56f
:100f60002925e024f4f582e434f4f583e0fea3e0df
:100f7000ffe52925e024d2f582e434f4f583eef090
:100f8000a3eff0af291246fee52975f00ea4243f29
:100f9000f582e434f0f583e054f7f0801fe529751d
:100fa000f00ea4243ff582e434f0f583e04408f029
:100fb000af2912441a5005af291246f4e5296405f9
:100fc000702d90f018e054f7f0e52975f00ea42488
:100fd0003ff582e434f0f583e030e30990f018e067
:100fe0004408f08007af291529ef70dd7529050544
:100ff00029020ec0e52975f00ea42432f582e434ee
:10100000f0f583e0fea3e0ffbeff22bfff1faf2984
:1010100012441a4018e52975f00ea4243ff582e425
:1010200034f0f583e04401f00529020ec0e529758e
:10103000f00ea42434f582e434f0f583e0f52da31a
:10104000e0f52ee52e452d7003021111e52e152e2b
:101050007002152d14ae2d4e601be52975f00ea4ff
:101060002434f582e434f0f583e52df0a3e52ef089
:101070000529020ec0af2912441a40030211119033
:10108000fc0ae0f52ba3e0f52c90f030e0ffa3e0a4
:1010900090fc0acff0a3eff0e52975f00ea42432fe
:1010a000f582e434f0f583e0fea3e0f5828e83e080
:1010b000f52d90fc0ae52bf0a3e52cf0e52d20e7bb
:1010c00021e52d601de5294440ff124711e52975f2
:1010d000f00ea42434f582e434f0f583e4f0a3f0b8
:1010e000804fe52d648a6029e529b405077f251224
:1010f00047118008e5294410ff124711e52975f0d2
:101100000ea42434f582e434f0f583e4f0a3f080f7
:101110002090fc0ae0f52ba3e0f52caf2912040186
:101120005002052990fc0ae52bf0a3e52cf0020ef5
:10113000c03002030213afe52924fbf52a75f0083d
:10114000a42418f582e434f0f583e0ff54307003f2
:1011500002121cef30e528af29124602500be52998
:101160004440ff124711021217e52a75f008a42423
:1011700018f582e434f0f583e054dff0021217e54d
:101180002a75f008a42418f582e434f0f583e054bd
:10119000eff030e003021217e52a75f008a42418d6
:1011a000f582e434f0f583e030e34de52925e024d1
:1011b000f4f582e434f4f583e0fea3e0ffe52925ad
:1011c000e024d2f582e434f4f583eef0a3eff0e509
:1011d00029b4070a90fc1c740ff0d20280057f0628
:1011e0001246fee52a75f008a42418f582e434f0ce
:1011f000f583e054f7f0801fe52a75f008a4241861
:10120000f582e434f0f583e04408f0af2912460299
:101210005005af291246f405290213a6e52a75f0f8
:1012200008a42418f582e434f0f583e020e01aaf36
:10123000291246024013e52a75f008a42418f58205
:10124000e434f0f583e030e310e52ab40204c2127e
:101250008002c21305290213a6301229e52ab4021e
:1012600024c21290fc0ae0f52ba3e0f52c90f002ca
:10127000e0fea3e0ff1236f190fc0ae52bf0a3e5b7
:101280002cf00213af301329e52ab40124c21390c5
:10129000fc0ae0f52ba3e0f52c90f002e0fea3e0c1
:1012a000ff1246ad90fc0ae52bf0a3e52cf00213eb
:1012b000afe52a75f008a42419f582e434f0f5832b
:1012c000e0fca3e0fda3e0fea3e0ffec4d4e4f7079
:1012d00020e52a75f008a42418f582e434f0f5839b
:1012e000e04401f030e105af2a123e430529021324
:1012f000a6e52a75f008a42419f582e434f0f583f4
:10130000e0fca3e0fda3e0fea3e0e4fffeedec546f
:1013100001fce4fbfa79ff7801c31226cb704990f7
:10132000fc0ae0f52ba3e0f52ce52ab4021790f0b7
:101330002be0fea3e0ff1236f190f02912271e00e9
:10134000000000801590f023e0fea3e0ff1246ad00
:1013500090f02112271e0000000090fc0ae52bf0ff
:10136000a3e52cf00529804790fc0ae0f52ba3e0cb
:10137000f52caf2a1219c98e2d8f2ee52ef470038d
:10138000e52df46015e52ab40209af2eae2d123614
:10139000f18007af2eae2d1246ad90fc0ae52bf082
:1013a000a3e52cf00529e52964086003021131e565
:1013b00029540fff90f017e054f04ff0200209e09d
:1013c000ffc454076002d28b223f2adc083f2b6601
:1013d0006b3f2bf13e3f2c7c813f2d08373f2d94f6
:1013e0005b3f2e20f43f2eadfc3f2f3b783f2fc9b3
:1013f000653f3057c63f30e69a3f3175e23f3205d0
:101400009e3f3295cf3f3326743f33b78e3f3449ea
:101410001e3f34db243f356da03f3600923f3693ac
:10142000fd3f3727dd3f37bc363f3851073f38e6b1
:10143000503f397c133f3a12503f3aa9043f3b409a
:10144000343f3bd7de3f3c70023f3d08a23f3da109
:10145000bf3f3e3b563f3ed5693f3f6ffa3f400b93
:10146000093f40a6943f41429f3f41df263f427cd7
:101470002d3f4319b33f43b7b83f44563f3f44f570
:10148000453f4594ca3f4634d23f46d55c3f4776f8
:10149000683f4817f63f48ba063f495c9b3f49ff03
:1014a000b33f4aa34f3f4b476e3f4bec143f4c9129
:1014b0003f3f4d36f03f4ddd263f4e83e43f4f2bff
:1014c000293f4fd2f33f507b483f5124243f51cd19
:1014d000883f5277773f5321ee3f53ccef3f54780c
:1014e0007d3f5524943f55d1373f567e653f572c5d
:1014f0001f3f57da673f58893b3f59389d3f59e8ae
:101500008d3f5a990c3f5b4a193f5bfbb73f5cad7f
:10151000e53f5d60a13f5e13f03f5ec7ce3f5f7c5d
:101520003f3f6031423f60e6d83f619d003f6253dc
:10153000be3f630b0d3f63c2f23f647b6d3f65347a
:101540007c3f65ee213f66a85d3f67632e3f681ec6
:10155000983f68da983f6997323f6a54663f6b124a
:10156000313f6bd0963f6c8f953f6d4f2f3f6e0f85
:10157000653f6ed0373f6f91a33f7053ad3f7116fb
:10158000553f71d99a3f729d7d3f7361fe3f74272d
:101590001e3f74ece03f75b3403f767a423f77419f
:1015a000e33f780a283f78d30f3f799c973f7a66cc
:1015b000c43f7b31933f7bfd083f7cc9213f7d9534
:1015c000df3f7e63443f7f314e3f8000003f8067b6
:1015d000ad3f80cfac3f8138023f81a0ab3f820955
:1015e000a93f8272fc3f82dca43f8346a23f83b0c6
:1015f000f63f841ba03f8486a03f84f1f63f855dc3
:10160000a43f85c9a93f8636053f86a2ba3f870f0a
:10161000c63f877d2b3f87eae83f8858ff3f88c752
:101620006e3f8936373f89a5593f8a14d53f8a8452
:10163000ad3f8af4de3f8b656a3f8bd6523f8c47c5
:10164000943f8cb9333f8d2b2e3f8d9d853f8e105f
:10165000383f8e83493f8ef6b63f8f6a813f8fdedb
:10166000aa3f9053313f90c8173f913d5b3f91b2e5
:10167000fe3f9229003f929f623f9316243f938d35
:10168000463f9404c93f947cab3f94f4f03f956d82
:10169000963f95e69d3f9660073f96d9d23f975477
:1016a000013f97ce933f9849873f98c4e03f9940c8
:1016b0009c3f99bcbd3f9a39413f9ab62c3f9b3322
:1016c0007b3f9bb12f3f9c2f4a3f9cadca3f9d2c37
:1016d000b03f9dabfe3f9e2bb33f9eabd03f9f2cb8
:1016e000533f9fad3f3fa02e943fa0b0513fa1324a
:1016f000783fa1b5083fa238013fa2bb653fa33f99
:10170000333fa3c36c3fa4480f3fa4cd1f3fa55256
:101710009a3fa5d8813fa65ed53fa6e5953fa76c29
:10172000c33fa7f45e3fa87c673fa904df3fa98db4
:10173000c43faa17183faaa0dd3fab2b0f3fabb5a4
:10174000b33fac40c73faccc4b3fad583f3fade49f
:10175000a63fae717f3faefec93faf8c863fb01a49
:10176000b63fb0a9583fb1386e3fb1c7f83fb25746
:10177000f73fb2e86a3fb379523fb40ab03fb49c36
:10178000833fb52ecc3fb5c18c3fb654c33fb6e8be
:10179000713fb77c953fb811333fb8a6493fb93b7d
:1017a000d73fb9d1df3fba68603fbaff5c3fbb9615
:1017b000d13fbc2ec23fbcc72c3fbd60133fbdf91b
:1017c000763fbe93543fbf2daf3f800000410a9744
:1017d000604112d517411b90414124d054412e9da8
:1017e000374138ff494143ff6a414fa700415c0040
:1017f00000416914f64176f1104182d013418a9775
:10180000604192d517419b904141a4d05441ae9d77
:101810003741b8ff4941c3ff6a41cfa70041dc000f
:101820000041e914f641f6f1104202d013420a9742
:10183000604212d517421b90414224d054422e9d43
:10184000374238ff494243ff6a424fa700425c00db
:1018500000426914f64276f1104282d013428a9710
:10186000604292d517429b904142a4d05442ae9d13
:101870003742b8ff4942c3ff6a42cfa70042dc00ab
:101880000042e914f642f6f1104302d013430a97de
:10189000604312d517431b90414324d054432e9ddf
:1018a000374338ff494343ff6a434fa700435c0077
:1018b00000436914f64376f1104382d013438a97ac
:1018c000604392d517439b904143a4d05443ae9daf
:1018d0003743b8ff4943c3ff6a43cfa70043dc0047
:1018e0000043e914f643f6f1104402d013440a977a
:1018f000604412d517441b90414424d054442e9d7b
:10190000374438ff494443ff6a444fa700445c0012
:1019100000446914f64476f1104482d013448a9747
:10192000604492d517449b904144a4d05444ae9d4a
:101930003744b8ff4944c3ff6a44cfa70044dc00e2
:101940000044e914f644f6f1104502d013450a9715
:10195000604512d517451b90414524d054452e9d16
:10196000374538ff494543ff6a454fa700455c00ae
:1019700000456914f64576f1104582d013458a97e3
:10198000604592d517459b904145a4d05445ae9de6
:101990003745b8ff4945c3ff6a45cfa70045dc007e
:1019a0000045e914f645f6f1104602d013460a97b1
:1019b000604612d517461b90414624d054462e9db2
:1019c000374638ff494643ff6a8f2fef1243238e75
:1019d000308f31d20074fff533f534e531f4700304
:1019e000e530f47003021efc853182853083e0ff10
:1019f00054b864b86022e0f533a3e0f534ef30e684
:101a00000974fff530f531021efc74022531f53101
:101a1000e43530f530021efcef54071460201460ea
:101a20001d147003021b5e14601f147003021c0e51
:101a300024fe7003021c8924076003021ee374ff66
:101a4000f530f531c200021ef6e52f75f008a4242a
:101a50001ef582e434f0f583e0fca3e0fd4c702f2a
:101a6000e52f75f008a4241ef582e434f0f58374a4
:101a7000fff0a3f0ef30e60974fff530f531021ef8
:101a8000f674022531f531e43530f530021ef68565
:101a90003182853083a3e0f532bcff18bdff15ff0e
:101aa000e52f75f008a4241ef582e434f0f583e4f4
:101ab000f0a3eff0e53230e724ff90f02ee0b40021
:101ac00017a3e0b50f127ef07f291243318f828e6b
:101ad00083e0540764046005c200021ef6e532305c
:101ae000e624ff90f026e0b40017a3e0b50f127ec5
:101af000f07f211243318f828e83e05407640460ab
:101b000005c200021ef6e53230e524ff90f01ee02b
:101b1000b40017a3e0b50f127ef07f191243318f86
:101b2000828e83e0540764046005c200021ef6e55d
:101b30002f124323e53230e707e490f02ef0a3f0b4
:101b4000e53230e607e490f026f0a3f0e53220e538
:101b500003021ef6e490f01ef0a3f0021ef6e52f3d
:101b600075f008a4241ef582e434f0f583e0fea3aa
:101b7000e0fdac0ef47002ecf47026853182853005
:101b800083a3e0f930e716547ffe853182853083e8
:101b9000a3a3e07a002400fdea3efc8004e97c0077
:101ba000fded1d70011c144c704b74fffcfd853164
:101bb00082853083a3e030e71f853182853083e062
:101bc00030e60874fff530f531802a74032531f5cd
:101bd00031e43530f530801d853182853083e03049
:101be000e60874fff530f531800b74022531f531cc
:101bf000e43530f530e52f75f008a4241ef582e4b5
:101c000034f0f583ecf0a3edf0c200021ef6e52ff0
:101c100075f008a4241ef582e434f0f583e0fea3f9
:101c2000e0ffbeff0ebfff0b853182853083a3e04e
:101c30007e00ff853182853083a3a3e0f533a3e0e6
:101c4000f534ef4e602aef1f70011e144e702174a0
:101c5000fffeff853182853083e030e60874fff5b2
:101c600030f531800b74042531f531e43530f53031
:101c7000e52f75f008a4241ef582e434f0f583ee18
:101c8000f0a3eff0c200021ef6853182853083a3f7
:101c9000e0b409004003021ed0901ca0f82828736d
:101ca000021cbb021ce3021d0b021d5b021d8b020a
:101cb0001dbb021d33021deb021e2e7ef07f28127b
:101cc00038ea853182853083e030e60974fff530eb
:101cd000f531021ef674022531f531e43530f53068
:101ce000021ef67ef07f201238ea8531828530832d
:101cf000e030e60974fff530f531021ef674022576
:101d000031f531e43530f530021ef67ef07f1812e1
:101d100038ea853182853083e030e60974fff5309a
:101d2000f531021ef674022531f531e43530f53017
:101d3000021ef6e490f014f0a3f085318285308322
:101d4000e030e60974fff530f531021ef674022525
:101d500031f531e43530f530021ef68531828530bb
:101d600083a3a3e0fd7f0212346e85318285308328
:101d7000e030e60974fff530f531021ef6740325f4
:101d800031f531e43530f530021ef685318285308b
:101d900083a3a3e0fd7f0112346e853182853083f9
:101da000e030e60974fff530f531021ef6740325c4
:101db00031f531e43530f530021ef685318285305b
:101dc00083a3a3e0fde4ff12346e85318285308366
:101dd000e030e60974fff530f531021ef674032594
:101de00031f531e43530f530021ef690f015e0247f
:101df00001ff90f014e03400fe853182853083a32a
:101e0000a3e0fca3e0c39fec9e30e71d85318285f3
:101e10003083e030e60874fff530f531800b740450
:101e20002531f531e43530f530c200021ef6e52fdc
:101e300075f008a4241ef582e434f0f583e0fea3d7
:101e4000e0ff4e7046e52f75f008a4241ef582e4ed
:101e500034f0f58374fff0a3f0e52f75f008a424a7
:101e600018f582e434f0f583e054bff085318285c3
:101e70003083e030e60874fff530f5318078740384
:101e80002531f531e43530f530806b853182853090
:101e900083a3a3e0f532beff18bfff15ffe52f7542
:101ea000f008a4241ef582e434f0f583e4f0a3eff7
:101eb000f0e52f75f008a42418f582e434f0f583da
:101ec000e04440f0af32122f12ef702ac200802699
:101ed0007f231246be7f301246be90f087e044401a
:101ee000f080fe7f231246be7f311246be90f087ff
:101ef000e04440f080fe3000030219dbae30af3129
:101f0000beff1bbfff18e52f75f008a42419f5824a
:101f1000e434f0f58312271e000000008043e52f13
:101f200075f008a42419f582e434f0f583e0fca3ed
:101f3000e0fda3e0fea3e0e4ee5480faedf9ec54fa
:101f400001f8af31e4e531ea4530fee9fde8fce5b2
:101f50002f75f008a42419f582e434f0f5831227d4
:101f600012ae33af3422124296ef70030223ce90aa
:101f7000ff91e0fba3e0faa3e0f912259490ffa9fa
:101f8000f070030223bc90ff91a3e475f0011225c9
:101f9000ad90ffa9e064256007e0ff12455a80cfad
:101fa00090ff8be4f090ff8e7420f090ff91e0fba7
:101fb000a3e0faa3e0f912259424d3601a24fd606b
:101fc00029240b70367f2512455a90ff91a3e475a2
:101fd000f0011225ad809890ff8b7401f090ff9175
:101fe000a3e475f0011225ad801190ff8e7430f0de
:101ff00090ff91a3e475f0011225ad90ff90e4f0fd
:1020000090ff91e0fba3e0faa3e0f912259424d01d
:10201000ffc364809480401dd3ef64809489501581
:1020200090ff90e075f00aa42ff0a3a3e475f001ef
:102030001225ad80cb90ff8de4f0ef642e703790c9
:10204000ff91e0fba3e0faa3e0f912259424d0ff6e
:10205000c364809480401fd3ef64809489501790ac
:10206000ff8de075f00aa42ff090ff91a3e475f0c6
:10207000011225ad80c990ff91e0fba3e0faa3e037
:10208000f912259424b4600c24ea600824f6600454
:10209000242a700b90ff91a3e475f0011225ad1274
:1020a00045e290ff91e0fba3e0faa3e0f91225944a
:1020b00024a8602324f5602724f3605924fd6036aa
:1020c00024fe700302214d24fd600c2414706590e1
:1020d000ff8a74fff0807690ff857410f0806e9018
:1020e000ff81e0a3e0a3e0a3e090ff97f0a3e4f07a
:1020f00090ff89f0805790ff91a3e475f0011225bd
:10210000ad90ff91e0fba3e0faa3e0f9122594ff64
:10211000123fe0803890ff91a3e475f0011225ade5
:1021200090ff91e0fba3e0faa3e0f9122594ff12df
:1021300043e0801990ff91e0fba3e0faa3e0f912dd
:10214000259490ff97f0a3e4f090ff89f090ff9121
:10215000a3e475f0011225ad90ff89e0700302231e
:102160006690ff8ce4f090ff8ae0605790ff81e07a
:10217000fca3e0fda3e0fea3e0ffe4fbfaf9f8d343
:102180001226b5403e90ff81e0fca3e0fda3e0fef7
:10219000a3e0ff1226a790ff8112271290ff8ce088
:1021a000ff04f0ef3395e0fe74972ff58274ff3e45
:1021b000f583742df090ff8ee06420600690ff9010
:1021c000e014f090ff8ce090ff8ff090ff85e0ff2f
:1021d0003395e0fefdfcf8f9faab0790ff81e0fcd7
:1021e000a3e0fda3e0fea3e0ff12261590ff87eb1e
:1021f000f090ff81c083c082e0fca3e0fda3e0fe7d
:10220000a3e0ffc004c005c006c007a3e0ff3395ec
:10221000e0fefdfcf8f9faab07d007d006d005d0f8
:1022200004122615d082d08312271290ff87e0d3a4
:1022300064809489501be02430ff90ff8ce0fd33d4
:1022400095e0fc74972df58274ff3cf583eff080e8
:102250001c90ff87e02437ff90ff8ce0fd3395e072
:10226000fc74972df58274ff3cf583eff090ff8ca2
:10227000e004f090ff81e0fca3e0fda3e0fea3e01a
:10228000ffec4d4e4f60030221cb90ff8fe0ff909b
:10229000ff8ce0c39fffa2e71390ff86f090ff88ba
:1022a000e4f090ff86e0ff90ff88e0fec3ef6480db
:1022b000f8ee6480984003022351e0ff3395e0fe7e
:1022c00090ff8fe0fd3395e0fced2fffec3efe74b8
:1022d000972ff58274ff3ef583e090ff80f090ff2a
:1022e00088e0ff3395e0fe90ff8ce0fd3395e0fc45
:1022f000c3ed9ffdec9efc74962df58274ff3cf5ba
:1023000083e0fd90ff8fe0fb3395e0faeb2fffeacf
:102310003efe74972ff58274ff3ef583edf090ff3b
:1023200080e0ff90ff88e0fd3395e0fc90ff8ce0bb
:10233000fb3395e0fac3eb9dfdea9cfc74962df50a
:102340008274ff3cf583eff090ff88e004f00222f6
:10235000a290ff8ce0ff3395e0fe74972ff5827416
:10236000ff3ef583e4f090ff94e0fba3e0faa3e0e6
:10237000f912468790ff8ceff012424590ff8ce0f7
:10238000ff14f0ef601990ff94e0fba3e475f001f7
:102390001225c3a9f0fa122594ff12455a80dd9048
:1023a000ff8be07003021f6f90ff90e0ff14f0efcf
:1023b0007003021f6f7f2012455a80ec90ffa8e047
:1023c000549d90fc3ff090fc2ee0fea3e0ff22ec39
:1023d0004d6011e8497017ed33ec3304600de4fcf7
:1023e000fffefd22e933e8330470f802257f122551
:1023f0004a58046009e4cc2481500628500902257b
:1024000089284003022586c0e0eb4a7044b9800663
:10241000d0e0fb022575ef4e701cbd8008ebffea93
:10242000fee9fd80ebe98df0a4fee5f00224b8e9b9
:10243000cdf9eafeebffef89f0a4fce5f0ce89f0e0
:10244000a42effe435f0cd89f0a42dfee435f08014
:1024500067ef4e7005bd80d780c3ef8bf0a4acf062
:10246000ee8bf0a42cfce435f0f8ef8af0a42ce518
:10247000f038fce433cb8df0a42cfce5f03bf8ee17
:102480008af0a42cfce5f038f8e433cf89f0a42cd2
:10249000fce5f038cf3400ce89f0a42fffe5f03e04
:1024a000fee433c98df0a42efee5f039cd8af0a408
:1024b0002fffe5f03efee43dfd33d0e0fb50070b7f
:1024c000bb000f022589ec2cfcef33ffee33feed51
:1024d00033fd02256175f020800e75f010800575c2
:1024e000f0087d007e007f003392d530d5031226a0
:1024f000a7ec334010ef33ffee33feed33fdec334a
:10250000fcd5f0ed22e5f0247ea2d513cc92e7cde8
:10251000ceff22edd2e7cd33ec3392d524814006b5
:10252000e4fffefdfc22fce4cfcecdcc24e0501134
:1025300074ff80edc3cc13cccd13cdce13cecf130f
:10254000cf0470f030d5de0226a7e9d2e7c933e820
:1025500033f892d5edd2e7cd33ec33fc5002b2d54f
:1025600022ec30e7100fbf000c0ebe00080dbd00be
:10257000040beb6014a2d5eb13fced92e7fd227483
:10258000fffcfdfeff22e480f8a2d574ff13fc7d62
:1025900080e480efbb010689828a83e0225002e753
:1025a00022bbfe02e32289828a83e49322c5f0f8eb
:1025b000a3e028f0c5f0f8e582158270021583e0eb
:1025c00038f022a3f8e0c5f025f0f0e5821582701e
:1025d000021583e0c838f0e82275f008758200ef34
:1025e0002fffee33fecd33cdcc33ccc58233c58245
:1025f0009bed9aec99e58298400cf582ee9bfeedfe
:102600009afdec99fc0fd5f0d6e4cefbe4cdfae4cc
:10261000ccf9a88222b800c1b90059ba002dec8bc0
:10262000f084cfcecdfce5f0cbf97818ef2fffee9c
:1026300033feed33fdec33fceb33fb10d703994055
:1026400004eb99fb0fd8e5e4f9fa227818ef2fff95
:10265000ee33feed33fdec33fcc933c910d7059bd7
:10266000e99a4007ec9bfce99af90fd8e0e4c9fa33
:10267000e4ccfb2275f010ef2fffee33feed33fdbf
:10268000cc33ccc833c810d7079bec9ae899400ae2
:10269000ed9bfdec9afce899f80fd5f0dae4cdfb60
:1026a000e4ccfae4c8f922c3e49fffe49efee49d73
:1026b000fde49cfc22eb9ff5f0ea9e42f0e99d428e
:1026c000f0ec6480c864809845f022eb9ff5f0ea56
:1026d0009e42f0e99d42f0e89c45f022e8600fec54
:1026e000c313fced13fdee13feef13ffd8f122e848
:1026f000600fefc333ffee33feed33fdec33fcd858
:10270000f122e493fc740193fd740293fe7403932d
:10271000ff22ecf0a3edf0a3eef0a3eff022a882ed
:102720008583f0d083d082122735122735122735c2
:10273000122735e473e493a3c583c5f0c583c8c5e8
:1027400082c8f0a3c583c5f0c583c8c582c8228fdf
:102750002fef25e025e0240cf582e434f0f583e04a
:10276000fca3e0fdecc4131313540130e00a90f015
:1027700028e020e003022a15ecc41313540330e0d0
:102780000a90f020e020e003022a15ecc41354075d
:1027900030e00a90f018e020e003022a1590f028bb
:1027a000e0ff13135401b52f07ef30e103022a15a0
:1027b00090f020e0ff13135401b52f07ef30e10331
:1027c000022a1590f018e0ff13135401b52f07effc
:1027d00030e103022a15e52f25e025e0240cf582df
:1027e000e434f0af82fe1243318e308f3185318276
:1027f000853083e0ff30e6030229ff54b864b860f7
:102800000d74022531f531e43530f53080dfef54b9
:10281000071470030228991470030228f51470033a
:102820000229511470030229de147003022978244e
:10283000fe7003022986240760030229ec0531e5b6
:102840003170020530e52f25e025e0240cf582e407
:1028500034f0f583e0fca3e0fda3e0fea3e0e4eeaa
:102860005480faedf9ec5401f8af31e4e531ea4572
:1028700030fee9fde8fc90f02912271290f028e0e4
:1028800054fef04402fff0e52f5401fe25e025e060
:10289000feef54fb4ef00227ed0531e531700205e5
:1028a00030e52f25e025e0240cf582e434f0f583b3
:1028b000e0fca3e0fda3e0fea3e0e4ee5480faed2b
:1028c000f9ec5401f8af31e4e531ea4530fee9fdb9
:1028d000e8fc90f02112271290f020e054fef04422
:1028e00002fff0e52f5401fe25e025e0feef54fb4a
:1028f0004ef00227ed0531e53170020530e52f2558
:10290000e025e0240cf582e434f0f583e0fca3e05c
:10291000fda3e0fea3e0e4ee5480faedf9ec5401ef
:10292000f8af31e4e531ea4530fee9fde8fc90f02e
:102930001912271290f018e054fef04402fff0e55f
:102940002f5401fe25e025e0feef54fb4ef0022758
:10295000ed853182853083a3e030e70e74032531a5
:10296000f531e43530f5300227ed74022531f531cb
:10297000e43530f5300227ed74042531f531e435c6
:1029800030f5300227ed853182853083a3e024fdc8
:10299000500f24fd600b146024240424fa5010808e
:1029a0002a74022531f531e43530f5300227ed7413
:1029b000032531f531e43530f5300227ed74042577
:1029c00031f531e43530f5300227ed7f231246be74
:1029d0007f321246be90f087e04440f080fe7402e1
:1029e0002531f531e43530f5300227ed7f231246ed
:1029f000be7f331246be90f087e04440f080fee593
:102a00002f25e025e0240cf582e434f0f58312272d
:102a10001e000000002290014c122702e4fbfaf98c
:102a2000f8c31226cb700f7bff7a3c795ffffefd67
:102a3000fc121f6680117bff7a3c79667f007e0066
:102a40007d007c00121f66900100e493fe740193e8
:102a5000fff47002eef460747bff7a3c79728f822f
:102a60008e83e493ffe4fcfdfe121f667bff7a3c3d
:102a7000797b900100e493fe740193f5828e837458
:102a80000193ffe4fcfdfe121f667bff7a3c798018
:102a9000900100e493fe740193f5828e8374029397
:102aa000fe740393ffe4fcfd121f667bff7a3c7902
:102ab00085900100e493fe740193f5828e83740483
:102ac00093fe740593ffe4fcfd121f6690017ee403
:102ad00093fe740193fff47002eef460397bff7a89
:102ae0003c798a8f828e83740593fe740693ffe48b
:102af000fcfd121f667bff7a3c798590017ee49392
:102b0000fe740193f5828e83740793fe740893ff1d
:102b1000e4fcfd121f667bff7a3c799a90fc3ee054
:102b200054e0ffe4fcfdfe121f6690fc3ee054e022
:102b300024e0602324e0603224e0604124e060501f
:102b40002480705f7bff7a3c79a97f007e007d0046
:102b50007c00121f66805d7bff7a3c79b07f007e2f
:102b6000007d007c00121f66804a7bff7a3c79b7ab
:102b70007f007e007d007c00121f6680377bff7a1d
:102b80003c79be7f007e007d007c00121f668024a1
:102b90007bff7a3c79c57f007e007d007c00121fa0
:102ba0006680117bff7a3c79cc7f007e007d007cc3
:102bb00000121f66124483ef60587bff7a3c79d481
:102bc00090fcefe05407ffe4fcfdfe121f6690fc52
:102bd000efe0540724fb60160470267bff7a3c79f3
:102be000e47f007e007d007c00121f6680247bff56
:102bf0007a3c79ec7f007e007d007c00121f6680ad
:102c0000117bff7a3c79cc7f007e007d007c001236
:102c10001f667bff7a3c79f490014c122702021f59
:102c200066ab0faa0eea30e73390f087e05407ff57
:102c3000bf060c90fc0a7402f0a37482f080099025
:102c4000fc0ae4f0a37402f0ea30e508753301757c
:102c500034a08023753301753424801b90fc0ae472
:102c6000f0a37402f0ea30e50875330175349c80f6
:102c700006753301753420853482853383e0fca3e7
:102c8000e0fda3e0fea3e0f5328e318d308c2faf56
:102c900032ae31ad30ac2f780f1226dcee540390fb
:102ca000fc0af0efa3f0ea541ffeeb7802c333ce28
:102cb00033ced8f9ffe531547ffcad32ef2dffee76
:102cc0003c8f82f583e0fca3e0fda3e0fea3e025ba
:102cd00032f532ee3531f531ed3530f530ec352f5a
:102ce000f52fe53025e090f031f0e52f3390f0300e
:102cf000f0e53130e705a3e04401f090f030e0ff6b
:102d0000a3e090fc0acff0a3eff0e531547faf329f
:102d1000f5338f34752ff0753032e4ff85348285ba
:102d20003383e0fca3e0fd4c602fe531547ffaab28
:102d300032ed2bfdec3aaa2fab308b828a83f0a3c5
:102d4000edf0ac2fad308d828c83ed240df582e457
:102d50003cf583e054fef08022ac2fad308d828ca8
:102d60008374fff0a3f0ac2fad308d828c83ed2403
:102d70000df582e43cf583e04401f0ac2fad308ddd
:102d8000828c83a3a3e4f0a3f0740e2530f530e425
:102d9000352ff52f74022534f534e43533f5330f30
:102da000ef64066003022d1c227d027f827e0212e8
:102db00041f390f087e0540764066003022e4574e7
:102dc000fffffefdfc90015ce0f8a3e0f9a3e0fa50
:102dd000a3e0fbc31226cb606c7bff7a3a79b190fb
:102de000015ce0fca3e0fda3e0fea3e0ff121f6690
:102df00090015ce0fca3e0fda3e0fea3e0ff780f00
:102e00001226dc7d011241f390015ce0a3e0a3e017
:102e1000fea3e0ffee547ffee42fffee34808f82ae
:102e2000f583e4ff122e298002e4737bff7a3a795e
:102e3000d67f007e007d007c00121f6690f087e048
:102e40004440f080fe7f027e001243a6bf801a7bc2
:102e5000ff7a3a79f57f007e007d007c00121f66c4
:102e600090f087e04440f080fe7d027f027e0012f9
:102e700041f374fffffefdfc90015ce0f8a3e0f974
:102e8000a3e0faa3e0fbc31226cb606c7bff7a3b86
:102e9000791d90015ce0fca3e0fda3e0fea3e0ff50
:102ea000121f6690015ce0fca3e0fda3e0fea3e03e
:102eb000ff780f1226dc7d011241f390015ce0a344
:102ec000e0a3e0fea3e0ffee547ffee42fffee342c
:102ed000808f82f583e4ff122edc8002e4737bff97
:102ee0007a3b79417f007e007d007c00121f669056
:102ef000f087e04440f080fe7bff7a3b79647f00fe
:102f00007e007d007c00121f6690f087e04440f058
:102f100080fecdefcded30e71790f028e0ffc41331
:102f200013540330e00790f02fe06d60037f002220
:102f3000ed30e51790f018e0ffc41313540330e0b0
:102f40000790f01fe06d60037f0022ed30e61790e0
:102f5000f020e0ffc41313540330e00790f027e0a3
:102f60006d60037f0022900008e493fe740193ffdc
:102f7000f47002eef4603aed30e4108f828e83e05c
:102f8000b48005a3e06d60037f0022ed30e3229062
:102f90000008e493fe740193fff5828e83a3a3e0ff
:102fa000b4800b8f828e83a3a3a3e06d60037f00a8
:102fb00022ed30e2235403ff74017e00c8efc808fd
:102fc0008005c333ce33ced8f9ff90f000e0540f24
:102fd000fbe4ef5b7002ff22ed30e707e490f02e98
:102fe000f0a3f0ed30e607e490f026f0a3f0ed302a
:102ff000e507e490f01ef0a3f0900008e493fe745f
:103000000193fff47002eef46023ed30e4088f8248
:103010008e83e4f0a3f0ed30e313900008e493fe18
:10302000740193f5828e83a3a3e4f0a3f0ed30e264
:10303000395403ff7401c8efc8088002c333d8fcb9
:10304000ff90f000e0fec4540ffdee540ffeed4f74
:10305000540ffdc454f04efef0eff4ffee540ffd9c
:10306000ee54f0feed5f540f4ef07fff22ef147030
:103070000302312d147003023179240260030231fe
:10308000c4edd394ff40027dff90f01dedf0e4ff0e
:10309000edc39410501d900310e493fa740193fb58
:1030a000ef25e0249ef582e434f4f583eaf0a3eb07
:1030b000f08026edc31325e02400f582e43403f507
:1030c00083e493fa740193fbef25e0249ef582e4f8
:1030d00034f4f583eaf0a3ebf0ef75f00ea4243f8f
:1030e000f582e434f0f583e0fec4540f30e024efc1
:1030f00025e0249ef582e434f4f583e0faa3e0fbb6
:10310000ef25e024d2f582e434f4f583eaf0a3eb72
:10311000f08010ef25e024d2f582e434f4f583e466
:10312000f0a3f00fef6406600302309022edd39419
:103130007f40027d7f90f025edf025e02400f582b0
:10314000e43402f583e493ff74019390f4aacff082
:10315000a3eff090f020e0ffc4131313540130e00c
:103160001090f4aae0ffa3e090f4decff0a3eff01c
:1031700022e490f4def0a3f022edd3947f40027db0
:103180007f90f02dedf025e02400f582e43402f587
:1031900083e493ff74019390f4accff0a3eff0902d
:1031a000f028e0ffc4131313540130e01090f4ac86
:1031b000e0ffa3e090f4e0cff0a3eff022e490f47e
:1031c000e0f0a3f022ab0faa0eea30e73390f087cd
:1031d000e05407ffbf060c90fc0a7402f0a374824f
:1031e000f0800990fc0ae4f0a37402f0ea30e508ec
:1031f000753501753698802375350175361c801b31
:1032000090fc0ae4f0a37402f0ea30e50875350199
:103210007536948006753501753618853682853584
:1032200083e0fca3e0fda3e0fea3e0f5348e338d44
:10323000328c31e53225e0ffe53133fee53330e70e
:1032400003430f0190fc0aeef0a3eff0ea541ffed7
:10325000eb7803c333ce33ced8f9ffe533547ffc8c
:10326000ad34ef2dffee3cab0ffa8b82f583e0fc23
:10327000a3e0fda3e0fea3e02534f534ee3533f5fd
:1032800033ed3532f532ec3531f53190f47ae53203
:10329000f0a3e531f0a3e534f0a3e533f0eb24042b
:1032a000ffe43a8f82f583e0fca3e0fda3e0fea3f8
:1032b000e0ff8b828a83e0f8a3e0f9a3e0faa3e0c1
:1032c000fbc3ef9bffee9afeed99fdec98fce53415
:1032d0002ff534e5333ef533e5323df532e5313c4b
:1032e000f53190f49ae532f0a3e531f0a3e534f03e
:1032f000a3e533f090f020e030e71190f4aae0ff6e
:10330000a3e090f4decff0a3eff08007e490f4deca
:10331000f0a3f090fc1c7486f0d20222d288e490d4
:10332000f014f0a3f0a37467f09002cee493ff745e
:10333000019390f4e2cff0a3eff090f017e0548ff8
:10334000f0547ff054f04408f0e4f53ae53a25e013
:1033500025e0240cf582e434f0f58312271e0000ea
:103360000000053ae53ab402e3e4f53ae53a75f0cf
:1033700008a42418f582e434f0f5837481f0e53a6a
:1033800075f008a42419f582e434f0f58312271ea1
:1033900000000000e53a75f008a4241ef582e4342c
:1033a000f0f58374fff0a3f0e53a70097dd0af3af1
:1033b00012306d80077d7faf3a12306d053ae53ae5
:1033c000d3940240a7c212c213c214e490f030f0aa
:1033d000a3f0f53ae53a75f00ea42432f582e43410
:1033e000f0f58374fff0a3f0e53a75f00ea42434f1
:1033f000f582e434f0f583e4f0a3f0e53a75f00edd
:10340000a42438f582e434f0f583e4f0a3f0e53a3f
:1034100075f00ea4243af582e434f0f58312271ee9
:1034200000000000e53a75f00ea4243ef582e43475
:10343000f0f583e4f0e53a75f00ea4243ff582e45c
:1034400034f0f5837411f0053ae53a64067085e4ca
:10345000f53ae53a25e024c2f582e434f4f58374c4
:10346000fff0a3747ff0053ae53ab408e522ef14c3
:10347000700302352a14700302356f2402600302c0
:1034800035b3edd394ff40027dff90f01dedf0e4e5
:10349000ffedc39410501d900310e493fa74019350
:1034a000fbef25e0249ef582e434f4f583eaf0a3f3
:1034b000ebf08026edc31325e02400f582e434030d
:1034c000f583e493fa740193fbef25e0249ef582e3
:1034d000e434f4f583eaf0a3ebf0ef75f00ea424e6
:1034e0003ff582e434f0f583e030e424ef25e02476
:1034f0009ef582e434f4f583e0faa3e0fbef25e0e7
:1035000024d2f582e434f4f583eaf0a3ebf08010e2
:10351000ef25e024d2f582e434f4f583e4f0a3f05f
:103520000fef6406600302349122edd3947f4002d2
:103530007d7f90f025edf025e02400f582e4340253
:10354000f583e493ff74019390f4aacff0a3eff016
:1035500090f020e030e71090f4aae0ffa3e090f4b0
:10356000decff0a3eff022e490f4def0a3f022ed42
:10357000d3947f40027d7f90f02dedf025e0240074
:10358000f582e43402f583e493ff74019390f4ac84
:10359000cff0a3eff090f028e030e71090f4ace02b
:1035a000ffa3e090f4e0cff0a3eff022e490f4e08a
:1035b000f0a3f02290fc10e04403f0e4f5a8f5b885
:1035c000f5a090fc2204f0e4ff12002ee42fffeea1
:1035d0003480fee43dfde43cfc753e01123b8890e6
:1035e000fc3ee054e064406007e054e0ffbf600947
:1035f00074fffffe12436580077ffa7eff1243656a
:10360000d2af122a167bff7a3a79057f007e007dc1
:10361000007c00121f661244dc1240c61245307b4b
:10362000ff7a3a79237f007e007d007c00121f66be
:1036300012419690f087e054f7f054f84406f044b5
:1036400010f07bff7a3a79397f007e007d007c00a4
:10365000121f667bff7a3a79487f007e007d007cee
:1036600000121f6612444f7bff7a3a79607f007e1a
:10367000007d007c00121f661247087bff7a3a79b2
:10368000767f007e007d007c00121f66753dc07b4a
:10369000c07d607f601242dd7bff7a3a79857f00d2
:1036a0007e007d007c00121f66e4ff1237ee90fc66
:1036b0003f7408f07bff7a3a79927f007e007d00ac
:1036c0007c00121f6612331c7bff7a3a79a17f00bf
:1036d0007e007d007c00121f66124670e490fc386c
:1036e000f090fc39f090fc3fe04404549df0022d32
:1036f000a9ab0faa0eea30e73390f087e05407ff3a
:10370000bf060c90fc0a7402f0a37482f08009904a
:10371000fc0ae4f0a37402f0ea30e50875330175a1
:1037200034908023753301753414801b90fc0ae4b7
:10373000f0a37402f0ea30e50875330175348c802b
:1037400006753301753410853482853383e0fca31c
:10375000e0fda3e0fea3e0f5328e318d308c2fe545
:103760003025e0ffe52f33fee53130e703430f015d
:1037700090fc0aeef0a3eff0ea541ffeeb7802c3d0
:1037800033ce33ced8f9ffe531547ffcad32ef2d87
:10379000ffee3c8f82f583e0fca3e0fda3e0fea3f7
:1037a000e02532f532ee3531f531ed3530f530ecde
:1037b000352ff52f90f47ee530f0a3e52ff0a3e54b
:1037c00032f0a3e531f090f028e030e71190f4ac4e
:1037d000e0ffa3e090f4e0cff0a3eff08007e490e7
:1037e000f4e0f0a3f090fc1c7487f0d20222ef709a
:1037f0000890fc3d7409f0800690fc3d7408f09040
:10380000f4007425f0a374d2f090f40274b5f0a320
:1038100074e4f090f4047466f0a37464f090f40619
:1038200074cef0a374c0f090f408743ef0a374e476
:10383000f090f40a74aaf0a374daf090f40c7448cf
:10384000f0a37468f090f40e7450f0a374bef0907e
:10385000f4107421f0a374bff090f41274d3f0a3a9
:1038600074daf090f41474b1f0a3744bf090f41681
:1038700074daf0a374eaf090f41874b3f0a374d877
:10388000f090f41a74e1f0a374cdf090f41c74d6a7
:10389000f0a37430f090f41e740ff0a374bdf09098
:1038a000f420746ef0a374eff090f4227476f0a319
:1038b00074cff090f42474b9f0a3741ef090f42641
:1038c000745af0a37492f0ef700890fc3d7405f008
:1038d000800690fc3d7404f0e490f4e2f0a3f090d4
:1038e000fc2b747ff0a374fff0228e358f368f820d
:1038f0008e83e04420f020e11ee5822406f582e478
:103900003583f58374fff0a3f08536828e83a3128e
:10391000271e000000002290fc0ae0f537a3e0f526
:1039200038e5362401ffe43535fe1243318f828eaf
:1039300083e0fd54bf2445606b24fe60030239ca56
:10394000e5362406f582e43535f583e0faa3e0f4a4
:103950007002eaf46074e5362406f582e43535f544
:103960008374fff0a3f0ed30e61085368285358351
:10397000a312271e00000000805085368285358303
:10398000a3c083c082e0fca3e0fda3e0fea3e0248b
:1039900004ffe43efee43dfde43cfcd082d0831213
:1039a00027128026e5362406f582e43535f583e0d6
:1039b000fea3e0f47002eef46010e5362406f58212
:1039c000e43535f583e4f0a304f090fc0ae537f024
:1039d000a3e538f0224d656d6d61702f6c696e6bdb
:1039e000206572726f723a205361772030782562b9
:1039f00078202d20004578706563746564203078e8
:103a00002562780a00204275696c743a204d61790c
:103a100020333120323030312031313a34303a31b4
:103a2000370a005061737420436865636b506f7789
:103a300065724f666628290a004861726477617270
:103a40006520496e69740a002020506f77657244c2
:103a50006f776e436865636b496e697428290a0045
:103a6000202042617474657279436865636b496ea6
:103a7000697428290a00202054696d6572496e69ad
:103a80007428290a002020445350496e697428295b
:103a90000a002020417564696f496e697428290afb
:103aa000002020457831496e74496e697428290ace
:103ab000004c61756e63682063617274726964673b
:103ac00065206c70426f6f744170703a20307825b9
:103ad00030386c780a004b4d61696e3a426164205f
:103ae0006361727420426f6f74417070206c6175f5
:103af0006e63680a004b4d61696e3a4c65617050a7
:103b0000616420436c617373696320626173652c27
:103b1000206e6f20426f6f744170700a004c6175a7
:103b20006e6368206261736520524f4d206c704255
:103b30006f6f744170703a2030782530386c780a95
:103b4000004b4d61696e3a42616420626173652089
:103b5000726f6d20426f6f74417070206c61756e72
:103b600063680a004e6f206c70426f6f7441707012
:103b700020666f756e64206f6e2062617365206fc2
:103b80007220636172740a008f3d8e3c8d3b8c3acb
:103b900020af04c2018004c2afd201e53e1460240c
:103ba00014603814604c14606024047071af3dae32
:103bb0003cad3bac3a780f1226dc90fc06eef0a34d
:103bc000eff0805aaf3dae3cad3bac3a780f1226d9
:103bd000dc90fc08eef0a3eff08043af3dae3cadcf
:103be0003bac3a780f1226dc90fc0aeef0a3eff023
:103bf000802caf3dae3cad3bac3a780e1226dc904b
:103c0000fc0ceef0a3eff08015af3dae3cad3bac4d
:103c10003a780e1226dc90fc0eeef0a3eff03001a5
:103c200002d2afe53e14601514601a14601f1460d0
:103c30002624047029af3de53c547ffe22af3de5cc
:103c40003c4480fe22af3de53c547ffe22af3de583
:103c50003c543f4480fe22af3de53c44c0fe220a76
:103c60000a42617365000a0a43617274726964678b
:103c7000650020524f4d3a562564002e25642000e1
:103c800025736320002573630a00524f4d20506155
:103c90007274233a2573633a2000415349432052fa
:103ca00065763a307825783d00415349432031000c
:103cb000415349432032004153494320330041538b
:103cc000494320340041534943203500556e6b6e03
:103cd0006f776e003a20436869702049443a307823
:103ce00025783d0041534943203541004153494324
:103cf000203542000a4b65726e656c20617420307d
:103d0000782530386c780090f00be0600614f07085
:103d100002d21d0510e510540fc3940a5003023d52
:103d2000ab74e72511f51130e719051190f017e094
:103d3000ffc4540ffeef548fffee045407fec4542b
:103d4000f04ff0e51054f02410f510c394a0402774
:103d5000e4f51090f008e0600614f07002d21a90ba
:103d6000f009e0600614f07002d21b90f00ae060e7
:103d70000614f07002d21c90f004e07002a3e06020
:103d80001090f00474fff5f01225ad45f07002d2ea
:103d90001890f006e07002a3e0601090f00674ff47
:103da000f5f01225ad45f07002d21922ef14601d16
:103db00014603c14604614606524046003023e3eb7
:103dc00090fc06e0fca3e0fd530403807190fc0628
:103dd000e07c00fd53050ced7e007806c333ce3346
:103de000ced8f9fdac0690fc09e04205e4804f9086
:103df000fc0ae0fca3e0fd530403804290fc0ae0cf
:103e00007c00fd53051ced7e007806c333ce33ce17
:103e1000d8f9fdac0690fc0de04205e4802090fc52
:103e20000ae07c00fd5305e0ed7e007803c333ce4d
:103e300033ced8f9fdac0690fc0fe04205e4af05a7
:103e4000ae0422ae0fee75f008a42418f582e43417
:103e5000f0f583e054fdf0ee70087dd0ff12346e73
:103e60008007af0e7d7f12346eee75f008a4241823
:103e7000f582e434f0f583e05404ff90f028e0fe8e
:103e800030e10554046f604a90f020e0fe30e10517
:103e900054046f603d90f018e0fe30e10554046f6b
:103ea0006030ef701790f00ce0fca3e0fda3e0fea3
:103eb000a3e0ffec4d4e4f7019d2102290f010e0ad
:103ec000fca3e0fda3e0fea3e0ffec4d4e4f70022b
:103ed000d2112278ffe4f6d8fd7581af023f1a02b5
:103ee00035b4e493a3f8e493a34003f68001f20809
:103ef000dff48029e493a3f85407240cc8c333c427
:103f0000540f4420c8834004f456800146f6dfe491
:103f1000800b0102040810204080900400e47e0120
:103f20009360bca3ff543f30e509541ffee493a304
:103f300060010ecf54c025e060a840b8e493a3fa16
:103f4000e493a3f8e493a3c8c582c8cac583caf0a2
:103f5000a3c8c582c8cac583cadfe9dee780be3010
:103f6000984bc29890fc3fe0ff4401549df090ffb5
:103f700000e02402f582e434fff583e599f090ff38
:103f800000e004f0e0543ff0202316202413e02446
:103f900040fea3e0fdc3ee9d543fc394204002d2f7
:103fa00024ef549d90fc3ff090fc2fe0ff209903fc
:103fb00020222c309902c29930240a759913d223f9
:103fc000c224d2222230250a759911c223c225d2d9
:103fd0002222302108852899c221d22222c22222ff
:103fe000ef249d602814605024ec704190ff81c044
:103ff00083c082e0fca3e0fda3e0fea3e0ffeeedc2
:104000004401fdecd082d083122712802b90ff81d7
:10401000c083c082e0fca3e0fda3e0fea3e0ffeece
:1040200074fffdecd082d083122712800b90ff9199
:10403000a374fff5f01225ad90ff81e0a3e0fda38e
:10404000e0fea3e0f9aa0690ff94edf0a3eaf0a346
:10405000e9f090ff89e4f02257444f473a2041703d
:10406000706c69636174696f6e20666c6167203083
:10407000782562780a0057444f473a204e6f2069ee
:104080006e746572727570742064657465637465ae
:10409000640a0057444f473a20496e20496e7465c0
:1040a0007272757074202562780a0057444f473a3f
:1040b00020416674657220696e74657272757074e1
:1040c000202562780a0090fc00e030e5587bff7afa
:1040d00040795890f001e0ffe4fcfdfe121f66e518
:1040e00012700f7bff7a407976fffefdfc121f668f
:1040f0008033e512c3941050177bff7a407993e523
:104100001224ffffe434fffee4fcfd121f6680155d
:104110007bff7a4079abe51224efffe434fffee445
:10412000fcfd121f6690f0017420f0e4f512227f6e
:1041300002123dac8e3c8f3d74fff53af53b90f09a
:1041400087e05407ffbf061b7d027f827e0212417b
:10415000f37f827e021243a674fffdfc1244b18eef
:104160003a8f3be53bb4ff20e53ab4ff1b7d027f6d
:10417000027e001241f37f027e001243a67db47cd2
:10418000001244b18e3a8f3b7d02af3dae3c1241ee
:10419000f3ae3aaf3b2290f087e054dff090fc3f63
:1041a000e020e44e7bff7a0079e67f007e007d0010
:1041b0007c00121f661246cee4fbfaf9f8c3122601
:1041c000cb701e90f087e054bff04420f0547ff095
:1041d0007bff7a0079f47f007e007d007c00021f67
:1041e000667bff7a0079fa7f007e007d007c0012fa
:1041f0001f662220af04c2018004c2afd201ed14b9
:10420000601714601e14602514602c240470309014
:10421000fc06eef0a3eff0802690fc08eef0a3ef92
:10422000f0801c90fc0aeef0a3eff0801290fc0ce2
:10423000eef0a3eff0800890fc0eeef0a3eff0306c
:104240000102d2af2290ff8de0ff601090ff8ce062
:10425000c36480f8ef6480985002eff090ff8ce028
:10426000ff90ff90e0fed3ef6480f8ee648098400a
:1042700005e09ff0800590ff90e4f090ff8be070e8
:104280001490ff90e0ff14f0ef600a90ff8ee0ffc3
:1042900012455a80ec2290fc3fe0f84401549df016
:1042a00090ffa8e8f090ff81ecf0a3edf0a3eef012
:1042b000a3eff090ff91ebf0a3eaf0a3e9f090fff9
:1042c000807455f0e06455700b742af0e0642a7035
:1042d000037f0122e890fc3ff0a37f0022c218c2b6
:1042e00019c21ac21bc21cc21dc2a9c2abe4f5117d
:1042f000fe7e0490f004e4f0a3defce4fe7e049075
:10430000f008e4f0a3defce4f5108f8a8d8c8b8b33
:10431000853d8d758966c28dc28fd28cd28ed2a911
:10432000d2ab2275f008a42419f582e434f0af82f0
:10433000feab0faa0e8b828a83e0fca3e0fda3e014
:10434000fea3e0ff780f1226dcee540390fc0af087
:10435000a3eff08b828a83e0a3e0a3e0fea3e0ff5b
:10436000ee547ffe22ad07ac06c2ac75c8368ccbce
:10437000edf5ca75984090fc3fe0ff4401549df074
:1043800090ff00e4f0a3f0ef549d90fc3ff090fc10
:104390002fe0ffc223c221c222c225c224c298c27a
:1043a00099d29cd2ac228e3e8f3f7f02123dac8ec2
:1043b000408f417d02af3fae3e1241f3900102e0db
:1043c000ff20e708753e00753f808008753e00efce
:1043d000547ff53f7d02af41ae401241f3af3f2223
:1043e000ef249c600824ec60042415700512455ae3
:1043f000801090ff91a374fff5f01225ad7f20127d
:10440000455a7f3a12455a90ff857410f090ff8efe
:104410007430f090ff907404f022ef700e90fc1e48
:10442000e05480fd7c007e00ff801fef14ff7401cc
:104430007e00c8efc8088005c333ce33ced8f9ff5d
:1044400090fc1ee0fde4feef5dffee4f24ff22c274
:104450001fc21e12412fe4fcfd90fc01e0f8a3e016
:10446000f9a3e0faa3e02fffea3efeed39fdec38b8
:10447000fc90000ae493f9f81226dcefe490f08651
:10448000eff02220af04c2018004d201c2af90f24b
:1044900000e0ff90f000e0fef490f200f090f000f9
:1044a000e0620690f200eff0300102d2afeef4ffce
:1044b00022ef64806003bf7f05af05ae0422900148
:1044c00080e0fea3e0f5828e83ffbeff08bfff05fc
:1044d000ae04af0522a3e0fea3e0ff227e007f3af8
:1044e000ef643a4e601fe4fcfd7bff7a3979d51208
:1044f0001f667bff7a3979f57f3a7e007d007c006c
:10450000121f6680fe22c0e0c0f0c083c082c0d00f
:1045100075d00875120390fc00e030e302d21e1241
:104520000d15751213d0d0d082d083d0f0d0e032e8
:1045300090fc227401f090fc00e05428601be030f5
:10454000e5147420f07bff7a4679a67f007e007d1b
:10455000007c00121f6612465922bf0a112021fd5d
:1045600075280dd221c2ac202202d299d2ac2021d2
:10457000fd8f28d221c2ac202202d299d2ac22c017
:10458000e0c0f0c083c082c0d075d008751204129c
:104590004622751214d0d0d082d083d0f0d0e03231
:1045a000c0e0c0f0c083c082c0d075d008751202d0
:1045b000123d07751212d0d0d082d083d0f0d0e057
:1045c00032c0e0c0f0c083c082c0d075d008751280
:1045d00005123f5f751215d0d0d082d083d0f0d0b5
:1045e000e03290ff8ae4f090ff8974fff090ff853d
:1045f000740af090ff947401f0a374fff0a3749711
:10460000f022ef14ff74017e00c8efc8088005c3d4
:1046100033ce33ced8f9ff90fc1ee0fde4ef5d24ed
:10462000ff2290f017e0ffc4540ffeef548fffee0f
:10463000045407fec454f04ff00511200202d28b3f
:104640002290fc007408f090fc3fe05495f090fc40
:10465000217401f043870280fee490f4e2f0a3f0bd
:104660007bff7a46799cfffefdfc121f66024641e5
:1046700090fc007410f0c210c21190fc3e7418f04f
:10468000c202d28ad2aa22e4fffe122594600c0f45
:10469000ef70010e09e970f20a80ef2220476f6f78
:1046a000646279650a000a57444f470a008e2f8fcb
:1046b000301247194007af30ae2f1231c522209972
:1046c000032022fa309902c2998f99d2222290fcbb
:1046d00001e0fca3e0fda3e0fea3e0ff2290fc00cc
:1046e000e030e4057410f0c20222ef448090fc1c1c
:1046f000f0d20222ef442090fc1cf0d20222ef44c0
:104700000890fc1cf0d2022290fc2a7480f0c215a2
:104710002290fc1ceff0d202220fbf00010ec32238
:104720000000c300845f4525ff0fe217c39bbff461
:104730005e46bf84671aff0fe20d9265bea5830334
:104740007f0518e47f862e10fd95c72a3ee2722170
:104750007fa30d68ff0fe40f53371e46741dbe1470
:1047600073fddb26e605991151b81d5102b9573684
:10477000b561ff0fe6056b15fc27908dd7648fc5db
:104780007bc0106ad6857fea571252d894a1874c15
:10479000ff0f893d590dd4364486f1b6eb94f445ac
:1047a000387ccfb24dd951c22437cc9245d8ff0fb7
:1047b0008e2fa6c10b17b8528965dd75e8f1a5608b
:1047c000a7071739058139bd23f5c909ff0f4e39f0
:1047d000cbc3a3075d37a634ac458593714fe5c0c5
:1047e000b90ac4f4d95a07d1fc71ff0f6d33d3d382
:1047f000a6248b1cc23229ae0341b3236552351c5b
:104800004463355d4466453dff0fac0d67d30847f3
:10481000de670562d354e662d354e762d3548663fd
:10482000450d0561350dff0f8719dec7895039a089
:104830002953250a0a52a3126b154e59ed174e390a
:10484000ee0332e1ff0fa635db238a23510e4c2005
:10485000e1504d23e1c0cf2301ec700036d7317118
:10486000d951ff0fe825167312877b61b593a334e6
:1048700059744409fb7106fcfd370dcd5e02cafa7e
:10488000bf0ff61c0479ff8348c5bfb041f7dfb204
:104890000bd4dfb601853fb7d1049fa319c43f00f5
:1048a000b61a5a5fdd102c0bfec2dbbf38b1c72a27
:1048b000b6f7c7e98ea21c96d302ff0f683397465e
:1048c000b3028e024a02d103dd27bd07ff0fa919eb
:1048d0003526b3b412d70a7383be4f37804dc61145
:1048e0005d3006c1d396ea178ce4ff0fe7470c4909
:1048f00047a3d3487050f8a82695c3463172a25feb
:10490000a89049b6b3f65081ff0fa579842a0c858b
:1049100049a5f246ec9011478e7b94413417144719
:10492000962bd2375891ff0fe56d4a256f8225b639
:10493000f5d330a591336705aee5c193922003ef1f
:104940008e95b347ff0fa4d78037f3a1123ed04412
:104950001db54ee3b1641302e1cf4e864dbaf28726
:1049600060adff0fa21f8c246d247dd58dc7257fe0
:10497000afc71497f16397b573653471f0003b1eb0
:10498000ff0f4653cc3950c30d39f3532494f7929b
:104990006f4c76320861f903e55ab893f9053f0880
:1049a0009c0c15373633eac91712bd5e19f2013b6c
:1049b000b97012fb1d3417d5bb14dab5ff00380ee1
:1049c0000b2f09e1f3cd0d200a0087205e2167201f
:1049d000ff0f097b96477420490034213e22cd7396
:1049e0002214adf4034eff0f88555fc1e9756fa91e
:1049f0002fd16450c2124b38c2d2f30a0942cc08fc
:104a0000c292c346ff0fc43d44d529071232a667a0
:104a1000153990d210fecb437718d123c0e02e7306
:104a2000152bff0f067f834e79d3704395756ba2cc
:104a300058660abfd2f7aad2d4068dd454e689f1bb
:104a4000ff0fe9478ed095a21a4d96d3a81f0f31bc
:104a50008d16f663d12aed62830d71b0f176ff0fea
:104a6000c811b5848ab1550d0f21c0a08f12318aab
:104a7000eb006d1312a7088feb84731dff0fe7097e
:104a80006b47b341c89032a10263ec16036f92a644
:104a9000c9176cb1d341f321a0b1ff0fc52d136726
:104aa00094b342620d65d5b895e669029750002728
:104ab0001110379017f244b7ff0fc44b0c65b3b118
:104ac000df3c770020e47a568817d052337d98d3a4
:104ad00004b894d7c35fff0fe443cd76f98102a6f3
:104ae000985302e3b252f572b7e192c235e4df0c9b
:104af000bab6803cff0fe42315a3fa6412a47871c0
:104b00005bbd9ae62409fcf6e71c1a01917b9c62c6
:104b10001259ff0fe5037317f981ab6cda23e890a4
:104b20005d15062eb81399db1c501269db948f7b40
:104b3000ff0fc737601b7a10c8801de3054a7985cf
:104b40001e3f7a24400bd973ed59d78652a0ff0f30
:104b5000e961741476a6e71f14d0923695f05117c8
:104b60003006ed2b90f6750ece04d57aff0fabe133
:104b700056238ed1c73f9143d8834b86e9b0d1905d
:104b8000c0478c237d50eb9059c1ff0fcac59a399d
:104b9000cea3d453ea011b5b0a6009e38b52360aa9
:104ba0000fe79557ae04e129ff0face1e9278a151d
:104bb0000d496c270cc4ea35e657cb509ab72971da
:104bc0000eda4a22859cff0facc1e2270c94d6b4c2
:104bd0000ae2b95d4e61d90cec03e5d72c12f5e879
:104be000ac23930fff0fcb83ac17ab03368a4c0477
:104bf0004ab12b261cc54b342cd6a9437ee90b5059
:104c00009668ff0fcb0b360de960ae0dea82be1e33
:104c10006dd695a38bb0ee402bd5fe61ece00e3740
:104c2000ff0fca15fd0a2a1505b4ec053a5dec150f
:104c30005a8f8b337e956b8549b0cb9069c1ff0f3e
:104c4000a919344b4db4a348aac09905ead0a5616f
:104c5000abe0b582ecf2c939ced4a4b4ff0f881909
:104c6000a50d2b06e98bea15f99c0b22f90d4e32a6
:104c7000e502ac0036f40c134e95ff0fc83e5a3dca
:104c80008b5325168b6035278b763104ac8011450c
:104c9000ad906152ada57163ff0f679ea479ae849c
:104ca000b60cafd499cbefb1fee0cfd63e6b9155a9
:104cb0001b9ff382bb62ff0f4a3d9e85f500246d6a
:104cc000954660b71700e1da37f24a5ab0446a9f56
:104cd0004d529aafff0f6b73ddc3a7c081ab08c6ff
:104ce000ea0a6722e97ce61243ce853305e6c3561d
:104cf00029e4ff0f4b95ccc986706154a676ae0da2
:104d000005c2a59285e6c1ade8e026c7a71347f91d
:104d1000ff0f293b534fa630671b09175234e88118
:104d200069b46ae3b3680cb4ea392b12f5d6ff0f05
:104d30006459dc1d890137694a401dc72b83b3358f
:104d40008ac1b9081007c94fac175b80ff0f829d5d
:104d5000452a8d7315cf11d2694955c49a1e7455d1
:104d60004b82f335c6af97d502fbff0fc3b7806701
:104d7000747633ad57d5b76f55e558b25241a5e8b3
:104d800076e6d78f3344780eff0fa3b7815974703e
:104d900093c01784f24bf43365e253a4ebc375055b
:104da000e08bf1529b7bff0fa3b782595577a81375
:104db000f0022774b0c3f352d520d806d2b37b805b
:104dc000f7c39002ff0fad0d6c498f336b79cfe2c3
:104dd0009165d2240bb48e91c30476b3c0f00d312b
:104de00073a0ff0fb00bab95e8d3f7aeec410651c3
:104df000c671498e8cf1d059a5025b174596752d69
:104e0000ff0fb14326a34be1bc5045260d59a59594
:104e1000715348e702db25077f6ba543761dff0f23
:104e200091a31da7c6d0b929eae03e81c527198004
:104e3000857769d305c2b1a8e9e1c82fff0f718357
:104e40001ba569031632e5406625e584a21605c355
:104e5000e25a6be59c17250326cbff0f10695c65b2
:104e6000c5634d5e2395810784d3b54268f0527eb9
:104e7000240497b184432d6cff0fcdb295a2028319
:104e8000653724b6ad0c83f7e564a8840b1ae325d7
:104e90003ec585628ea9ff0f8bf24de4e4d6a57066
:104ea0000c54d90ee610a7038765354825b5d3897c
:104eb000abe4d0bfff0f26bf842aa40283318756fc
:104ec00009d32ab2c3760bc2bc24ea240f9a2b66fc
:104ed0002981ff0fc559c39aabc379e4cbd5520ad8
:104ee000ac20bf4d6b9619a44db78c21c8068b3fe3
:104ef000ff0fe4934835ad75250f9090f2c654012d
:104f000077e20f105ca932f1b07a91265fe4ff0fcf
:104f1000e33503a5d3e5451c17b782fed3957bb3d4
:104f2000f4a0f480935137f8b9618045ff0f2f56f4
:104f3000a64555142b691af27124961633b797a714
:104f40009213f714add4b7614a81ff0f0d569e0935
:104f500048f0ee58ece3c2402e96bf70f017945f15
:104f600092d5f70852d412b63f08590e831d32b6b7
:104f70007eac11e272fd1356eaa115f69fc791604f
:104f8000c0d992a05bbe3f001c545c2d1392794f98
:104f9000f823d803df234c0329043f005e4e8a39ef
:104fa0001c2598047005a625dd2628053f007f50a6
:104fb0000a3b4f0644066b273b270b0610073f00b2
:104fc000ff720ab77805ba07a924de051b050e266d
:104fd0003c001d266667e705e724f023fc23a606b0
:104fe000ca0607007d74542b792474082d2b2f0dcd
:104ff000ff0f487dd6c28104e2005700ff0feb7e11
:10500000cec20d0211c94da4e4d0490436b544b650
:1050100081a40bf772caa5251db3ff0f2a7f46e4b2
:1050200044c2a36888f2287da5311d5405c0d38ae7
:105030006d07e13166766324ff0fca7e1fa24be441
:10504000d05fe5062f9b25b589e96d6043b14476b5
:10505000ab94ef3285a1ff0fc89e06e223340d64a6
:1050600063f1c1ae89266d1d45c0951e0a07a3d503
:1050700008d4afceff0fc79e06624b14823c45d0ca
:10508000ab9e2b11d8648b92efcb2f32c0f24bb377
:10509000e70dbf0f7808497fad36502cabd29bf699
:1050a0006d6502c4f2c2e371efc71a3990e611933d
:1050b0003f005c3b4276ad100fa26e5768f42805a6
:1050c0008e730ff636d108e2319bd0203f005c5b37
:1050d00082742a007420c02179008000de003f0025
:1050e0005b13c978330035203a214f212b21dc0096
:1050f000ff00fa0e533d21001121bb2089203a0107
:105100004820ff0f893b4ba8c7201e20b220ab21af
:105110003242771216d71028ff0f89374ce64a60c3
:1051200047c86ec7e059e6062b4de8f6c1a88d15b5
:1051300077d24bf7c19eff0f881b8cd6470687d2cc
:10514000afd4c84f47362ba08ca09608a9738342d2
:105150006af1390bff0fe83c4ed3e7e601b7305058
:10516000890f6f95ecc74a762dd8b2803001f127b0
:10517000d149ff0fc73a1f45a94337ebef0678180f
:105180005032129aaa253baeb3d160046d625a2dfb
:10519000ff0fe35383d3ec614b78100120b315c4a8
:1051a0007a6211f2a73e3106c1a438553648ff0f86
:1051b00063d782613763ae255ab5ff0e7b10309cf2
:1051c000dc02e67c3a6495b15cd06dbfff0f65b937
:1051d000823138611a051c4215955cb35fd35d02bc
:1051e0004278b8a3d7f8b9130049ff0f45d58131ec
:1051f0001e143fe09ce32b4f7c42c01e7e5396e181
:10520000f64213d9dc051ca7ff0fe8d44b311e87eb
:105210005f9bff2140d51b70dc3b3ed1871ff9937c
:10522000dd865b5128c1ff0fc29548333ee6dfaff4
:10523000bf011f321f64c09a5db152ea5c138760e0
:105240003df133dcff0fa7ca9332ba1361e3de41ad
:10525000c306bf634fb33fb300d93f3376b05ed6ca
:10526000065a300c865a1d67bd27dfe73f0653e11b
:105270001fe750185fc5aa307e06ef1d9f637c12a2
:105280000000ff0710321f30b201000000000000d4
:105290000000000000000000000000000000c3004b
:1052a000e37a5577ff0fa8d88e919ef5d0be9c95d6
:1052b000771bff0f69994ee1782381db51b3ae85ef
:1052c000b3708f94ae678aa32b9215fa5131e1081f
:1052d000ff0f09b9e6f106b2974d8e13928326614e
:1052e0009b83ecf3e0d6a7563bf084d3a9fcff0fd9
:1052f0004b3ea64766077748e5635549e5e16da053
:10530000a710edb68856d3302811cf203f081a7069
:10531000932d2662b1a1a820d9c1e9279a83cc7325
:105320008cd00c471795ac04ca213f00bf44027fc4
:105330000e347aecd421600195014f22d221ff0373
:105340000f9ea3059323ce229502d0027a00e62079
:105350007d0f305c3d117720872238610dc1fc85bf
:10536000a8059e5233fcbe041c74ff0bb01cafb7e3
:10537000ff8370569cb1aacf3f4389c1bf8047fbd2
:105380003d10715dff0fc95ce2249bb39f757103f3
:105390004ad66712e675f32ca96094522d72432108
:1053a000ff0fcb659696ce10215e34769eb4923375
:1053b00015758ff32de40d8602b6095767b7ff0ff9
:1053c0008f49ef1a4ec774a0070537b207b1956e23
:1053d0002e61220da970e324eb40311dff0f8ea337
:1053e0005e3886351940a7c6ee1dca50cb14e48638
:1053f0007539e9d60a6844260931ff0f50e3221bac
:10540000e7b699c72b25498f69134e3ae895a67bd5
:10541000eae11e82e72483c0ff0f30c14c37269596
:10542000754867e2f3ad8df0d859654129de659482
:105430007184c5e6d1caff0f84594567e97191f3bc
:10544000483543022d32aa953091624a9245f1e0e7
:10545000f301fab6ff0f13411b77f74530cfb515af
:1054600043b87aa555d85930226eb9b02e891d821d
:105470006ed33f00187b83b83af1cebdfc04d63c16
:105480007ad312ce7a963fa80f65463b94a5bc6f9f
:10549000ff0367a95754f8220b243303f422ae020a
:1054a0007704ff0fc8e944288e080c074f1043e526
:1054b0008eb2d71a7526c870cd93a335ff0fa8ed0d
:1054c0000613f313443b6ea08324112158b0eda2c0
:1054d0008315f54518c22f866dabff0f46d11461b9
:1054e0007327b274ab90cbb87252247c8ca3cbe8f8
:1054f000d0543cbcac90b368ff0fc4b941a5f06375
:1055000021b00eb2a3461511f8d751a5653e7837e4
:105510008827f352ceda3f0e1902fc2b9b01d125ce
:1055200079b73da95dc7e806b7a0873c5bb3e8172c
:105530001793b3e3ff001924f337b20029c1f777bb
:105540006d8d4ff2b9d8172284021501ff0fc9984b
:105550009f4752009f21520059006de7a229a8647d
:10556000caa0ff0f8759d7c22cb6c81347668b92c3
:1055700089f26817a202374a04a5d350aba64a7d28
:10558000ff0fe73e9c44cb436b312ae7b9068b04ff
:10559000ab8c6ca58335f3f7d85aab235b41ff0f77
:1055a0002b3e6c11cad5fb06ae643450ea71974aa3
:1055b0004f9100e1ea44138a2bf0c3617f0c1ba4d6
:1055c00096372e3250bc6ca78b7f90706004ec40f5
:1055d000e5b69115cae40eb21a49ff0fa47eca645b
:1055e0005387b373b1e34a3bee03682200223605ca
:1055f0009312ff0f833f4373f9077e941e07d4383d
:105600007fe3508ffeb54f68bf77942d1fb4a4d5ac
:10561000ff0fa93e533bbf31a61e5f5526d97fa57c
:10562000ed845f06387fffb52e05bff4876cff0f52
:105630002cd84f369d8544e23ef02aa73da1e34297
:105640003ce449a05b340c7e1770a8b6ff0fc92359
:105650009fd1b7c1ec307850eb7490a5c49852f24a
:105660006a1d8f85ab920fd690cbff0fad418fe2b5
:10567000d1751d542de7c561af17e9740b9155ec39
:105680007012e1c84b23a3d0ff0f8e271fe129c45e
:105690007192ec4279900951d303a9e085024ea79b
:1056a00053f8ea610d5dff0f6e49d7b067d78de201
:1056b00069279b4f054135098765b228a7c6f818a9
:1056c000a80017e6ff0f4e89ce74a6246ea7e6b297
:1056d000712846c3e8172507cd5d46510162e6678c
:1056e0009204ff0f2dadc474a4d7a14b49e1886f7c
:1056f000c416cd3ae6375614e48679a5a6c3a91890
:10570000ff0fea9a0aa74ac1426e23048713034196
:105710001d7c039559c623e5a5b1a8f172e9ff0fd9
:10572000eab447e2a54059318750aab76bc7f07d6c
:105730006534475a05d151082ec2e473ff0fe9b60c
:10574000c5f00595451f2db602234683350d7126fc
:1057500002466ab5c73e90128927ff0f8a9c07f65a
:10576000104761b58c755f46512690685170cc36f4
:105770002b958f7af56750d4ff0fa8b647fab5b3cb
:1057800065dab7160a95ec7563c8f2306024389173
:10579000175cd70265e5ff0f84b9426b2eb59fad4c
:1057a0007200c8685b722f9e1d468d027cf34165b6
:1057b00034164f03ff0f44f781379a03445a9dd2a2
:1057c0006ff41e6731cb1af5e70dfa500a149d905d
:1057d000bb72ff0fa25d42771f371fb03ff6883db7
:1057e0009e065291bfa0e68f5ff26ed9df0540237f
:1057f000b70d190d1433bf86df067f5337fb5f00eb
:1058000079953fc03179bf055e9b7f8332c0ff0031
:10581000546e5f399d0196171f05f8b23cf25f6820
:10582000101350321f063f0c150c5e5798069e064b
:1058300020250205f365b11074a0830b3c0071862e
:105840004f13ba941f42b9e58423620a830a810b7d
:10585000242c0000c50c012d442fd1300000000085
:1058600000000000000000004100875c5469be0f8a
:1058700001bf4c257f9742ab0000bfb0d330ff85fe
:10588000c71d5f061429ff0428f7bf0330d50000a9
:105890001f0017869c3c7f003a34037b762be00484
:1058a0005f0219017c01ff0f07d9d4611021f32198
:1058b000292103211b088cd0745fff0fe8f84fb13a
:1058c000e8d117a0a7d7b90aa5c6bdf087b399d765
:1058d000eaa5856b08816995ff0f07fbc5a06744a2
:1058e000661d07256e5ba805ec3909c07e1f4aa717
:1058f0005e8d4b873abaff0f07fba670ab645c1e48
:10590000ec334cfc0922a2e0ea03e4376ac55618de
:105910000b50a1ebff0f68be9f43ed63719a2bc143
:10592000337b2b2269baea915c1a6df3816410f41f
:10593000456d3f0e1632f53dac1662705195f3463b
:105940008ff01d9330e5195413824cb1320669fd76
:105950007f003c3a887b0d921268ee805e6d713656
:10596000ab4e53220c036d23bf0fa89e9e297303d9
:1059700070232802d123d1261c40b1e5ff03f60a8b
:10598000d5b75d3117b21f24b9089f12993bbf816b
:10599000cd3dbf46dd084a08ff0f88598dc6b82a9d
:1059a0007b035062e9c82d31a620b067ec0b53c4cd
:1059b0002ca4ff0f891db4980f72931eaa85630251
:1059c00069b65509a9d585afacc5d8518b1507590e
:1059d000ff0f8a1d7dd64914469d6950821d08140b
:1059e000c3496856c57faa84b5f0e731f50bff0fb0
:1059f000c91b3ea8c7347ae56ab6719608a0cc2eba
:105a0000a8e06632ca032eb9c7254c65ff0fe8ad82
:105a10001bd1c9639281eba3d2b56ce2980f4b10f6
:105a2000dda4aa3056182a75c215ff0f45b51a21f4
:105a30002db0ea16f1f2bc178f3505e66f476cb84a
:105a4000103168ad15442b5fff0fc675d584b204c5
:105a50009e8a715048f63103b1daf295874a8ca2da
:105a60007cf9ce108dc3ff0fc71d6394cea3d36105
:105a7000f2b1a8616c4073302de558174b031773d2
:105a8000abc1d38aff0fe6190357ae03659b0bd05a
:105a90005dba6f154cb0aba3c374b0471c8b4db44b
